:03000000020008F3
:0300610002000397
:0500030012010F80FE58
:10006400AA82AB83ACF0FD7E00BE080050188E0758
:100074007818EE2418F582E43420F583E0F98F82B1
:100084008883F00E80E3907400E0FEA3E0FFA3E019
:10009400F8A3E0F9907030EEF074182FA3F0E43870
:1000A400A3F0E439A3F0907038EAF0A3EBF0A3ECEA
:1000B400F0A3EDF0907040E540F0A3E541F0A3E536
:1000C40042F0A3E543F0907400E0FAA3E0FBA3E060
:1000D400FCA3E0FD90704874182AF074203BA3F050
:1000E400E43CA3F0E43DA3F0901000E0FAA3E0FBAD
:1000F400A3E0FCA3E0FD907020EAF0A3EBF0A3ECF6
:10010400F0A3EDF09073007401F02275361C75377E
:1001140009907404E0FCA3E0FDA3E0FEA3E0FFA8C3
:1001240036A937E4FAFBE82CF530E93DF531EA3E2F
:10013400F532EB3FF53374032530FEE43531FFE44B
:100144003532F8E43533F974FC5EF5308F3188329A
:100154008933907404E0FEA3E0FFA3E0F8A3E0F980
:10016400E530C39EFEE5319FFFE53298F8E533990B
:10017400F98E368F37E4F534F535C3E5349451E51B
:1001840035648094825060E5342536F8E53535379A
:100194002480F974032534FEE43535FFEE241CF580
:1001A40082EF3409F583E493FE754011E4F541854B
:1001B4003482853583C006C000C0011208E2AF82D4
:1001C400AA83D001D000D006EF24A8F582EA3438FF
:1001D400F583E493FA620688828983EEF00534E4B9
:1001E400B534970535809390100074402530F07431
:1001F400013531A3F0E43532A3F0E43533A3F090B4
:10020400100474942530F0E43531A3F0E43532A3BE
:10021400F0E43533A3F0907030E530F0A3E531F02D
:10022400A3E532F0A3E533F09070387454F0A3746E
:1002340002F0A3E4F0A3F09070207444F0A374CA15
:10024400F0A37408F0A3E4F09073007401F07A0052
:100254007B00C3EA9408EB6480948050327C987DE0
:1002640038EA2CFCEB3DFD74082AFEE43B2418FF1D
:100274008C8274802DF583E0F88E828F83F08C82DB
:1002840074802DF5837498F00ABA00C60B80C37588
:10029400400075413B75420075430090FAE875F0E3
:1002A400BA740212006475402875410175420075E4
:1002B4004300906DA075F0BB74021200647A007B59
:1002C400007C007D00C3EC9408ED648094804003BE
:1002D400020355EC2418F582ED3420F583E0FEEC9E
:1002E40024A0F582ED3438F583E493620674082C77
:1002F400FFE43DF88F82741828F583E0FFEEB5071C
:100304000280428A068B078E388F391EBEFF011F7A
:10031400E5382418F53AE5393420F53BE538241856
:10032400F582E5393420F583E0F88E01E9042418D8
:10033400F582E43420F583E0F96200853A82853B56
:1003440083E8F080C20CBC00010D8C028D03020214
:10035400C97A007B00C3EA9408EB6480948050134C
:10036400EA2418F582EB3420F583E4F00ABA00E5B8
:100374000B80E27540C075412275420075430090C0
:100384000000E4F5F01200647540407541017542C7
:1003940000754300906780E4F5F01200647540C86E
:1003A4007541ED75420275430090000075F001E45B
:1003B4001200647540847541537542217543009061
:1003C400EE0075F003E41200647540B07541607589
:1003D400420075430090420075F025E412006475F4
:1003E400400875417A75420C75430090A30075F07E
:1003F40025E41200647540C87541A1754202754335
:100404000090443075F064E4120064907A00E0F5E2
:1004140030A3E0F531A3E0F532A3E0F53390201AE0
:10042400E0FD7A007B007C0090201DE0FE7F008FC1
:10043400018E00E4FF4202EF4203E84204E9420570
:10044400902019E0FE7F00780088018F008E07E479
:100454004202EF4203E84204E9420590201CE0FE18
:100464007F0078007900902020EE4AF0EF4BA3F053
:10047400E84CA3F0E94DA3F0902020E0FAA3E0FBC0
:10048400A3E0FCA3E0FD90202074E86AF074976B6D
:10049400A3F074CC6CA3F074906DA3F090201BE0D7
:1004A400902010F0AA31902011EAF0AA3390201283
:1004B400EAF090201EE0902013F0AA307B007C002C
:1004C4007D00902014EAF0902018E0902015F0AA06
:1004D40032902016EAF090201FE0FA902017F07571
:1004E4003407E4F535C3E5349401E535648094803C
:1004F4004073902020E0FCA3E0FDA3E0FEA3E0FF16
:1005040074D82CFC74043DFDE43EFEE43FFFA834A3
:10051400E535F93395E0FAFB907020E82CF0E93DDD
:10052400A3F0EA3EA3F0EB3FA3F0AA3474202535F0
:10053400FB907200E08A828B83F0AA347420253504
:10054400FB85348274202535F583E0FC902018E087
:10055400FD62048A828B83ECF0153474FFB5340297
:1005640015350204E975340FE4F535C3E53494090F
:10057400E535648094804073902020E0FCA3E0FD86
:10058400A3E0FEA3E0FF74E02CFC74043DFDE43E14
:10059400FEE43FFFA834E535F93395E0FAFB9070AB
:1005A40020E82CF0E93DA3F0EA3EA3F0EB3FA3F0F2
:1005B400AA3474202535FB907200E08A828B83F084
:1005C400AA3474202535FB85348274202535F583BF
:1005D400E0FC90201BE0FD62048A828B83ECF01522
:1005E4003474FFB53402153502056F902004E0FA27
:1005F40090200CE06202902000EAF07A707B0B7C81
:10060400007D00907404E0FEA3E0FFA3E0F8A3E003
:10061400F9EA2EF530EB3FF531EC38F532ED39F5EA
:1006240033740F5530FAE4FBFCFDEA24F7503D74B3
:10063400102530F53CE43531F53DE43532F53EE442
:100644003533F53F8A077800EF24F8FFE834FFF8E4
:100654003395E0F9FBE53CC39FF530E53D98F53172
:10066400E53E99F532E53F9BF53380237B00740822
:10067400C39AFAE49BFB3395E0FCFDEA2530F530A0
:10068400EB3531F531EC3532F532ED3533F5339068
:100694007400E0FAA3E0FBA3E0FCA3E0FD9070305B
:1006A400EAF074202BA3F0E43CA3F0E43DA3F09023
:1006B4007400E0FAA3E0FBA3E0FCA3E0FD90703833
:1006C40074102AF074203BA3F0E43CA3F0E43DA3AF
:1006D400F07A707B0B7C007D00907404E0FEA3E054
:1006E400FFA3E0F8A3E0F9EA2EFAEB3FFBEC38FCB9
:1006F400ED39FD90704074202AF0E43BA3F0E43C13
:10070400A3F0E43DA3F0907048E530F0A3E531F0A8
:10071400A3E532F0A3E533F09070507408F0A374AD
:100724002DF0A3E4F0A3F0901004E0FAA3E0FBA3FF
:10073400E0FCA3E0FD907020EAF0A3EBF0A3ECF062
:10074400A3EDF09073007401F0907030E530F0A3E5
:10075400E531F0A3E532F0A3E533F0907038740886
:10076400F0A3742DF0A3E4F0A3F09070207444F08F
:10077400A374CAF0A37408F0A3E4F09073007401A6
:10078400F0907A00E0FAA3E0FBA3E0FCA3E0FD9084
:100794007030EAF0A3EBF0A3ECF0A3EDF0907A0450
:1007A400E0FAA3E0FBA3E0FCA3E0FD907034EAF0E0
:1007B400A3EBF0A3ECF0A3EDF0907B00E0FAA3E050
:1007C400FBA3E0FCA3E0FD907038EAF0A3EBF0A3F8
:1007D400ECF0A3EDF0907B04E0FAA3E0FBA3E0FCD3
:1007E400A3E0FD90703CEAF0A3EBF0A3ECF0A3EDE2
:1007F400F0907C00E0FAA3E0FBA3E0FCA3E0FD9012
:100804007040EAF0A3EBF0A3ECF0A3EDF0907C04CD
:10081400E0FAA3E0FBA3E0FCA3E0FD907044EAF05F
:10082400A3EBF0A3ECF0A3EDF0907D00E0FAA3E0DD
:10083400FBA3E0FCA3E0FD907048EAF0A3EBF0A377
:10084400ECF0A3EDF0907D04E0FAA3E0FBA3E0FC60
:10085400A3E0FD90704CEAF0A3EBF0A3ECF0A3ED61
:10086400F0907020E530F0A3E531F0A3E532F0A379
:10087400E533F090702474F8F0A37465F0A3746702
:10088400F0A3E4F09073007401F09079007401F027
:010894002241
:10091C00CFC8D75AFBE2D867C8A4807CA176F40074
:10092C00BE48C440A4FD3A84EFCF02FC8D0ED480A7
:10093C00607A7EBD0D755F81123FB299E225680A1F
:10094C00D4D22271AFA22546FCE0C8B0A4BE50DCC4
:10095C005FE694232EC4041E3B9F809E05B3AC38E7
:10096C00A13684F85248E471621BE385CFD48AD156
:10097C004F7808A9A9685CB8243843A9F8A4D8D83A
:10098C00840ED90AD4B80A30C3244279D507465DFF
:10099C00A184403193D48014C8C404623BD5F8E6DA
:1009AC00CCA48444A176D4787BB7A5586A39730358
:1009BC00A7CCD4F83EBA0E2FE15A30B8DF59432EEB
:1009CC0079E64CD81867D98D7580D234790F1AC056
:1009DC0014F876B07AB73C5A97D41861A8C4249A04
:1009EC003AD548AECCA4AC0F5E89F9FC44B0EECD40
:1009FC005E3BD5C199CCACF844EB0EA89EA362B873
:100A0C00399A11AC87E6EC5C9844A1094B581A341E
:100A1C0059DE76476B02F2B3E7573CE0EA2B4CB257
:100A2C0049C494897AD5880DADA4FC38A975726B2C
:100A3C00DB4844CFC33B5D1327CC346FA5A1EEEC50
:100A4C00A15AE88AA4621BD5F8E6CCA48444A0F68B
:100A5C00D2805AB0E5DB3347DDFA4037C584CC98F9
:100A6C0036D480A1E9C4BC1EA0F6801D0DA4243888
:100A7C001C5DAC7BBB486C581C20AD8439FFDC7F03
:100A8C00C5A1E62C815A888C24629FEDF2E6DCDC51
:100A9C009844810948681A0859240E03D5F8F6B70A
:100AAC000C83649816D4802641C7825ADAD588DE26
:100ABC000CA4843DC176F4FFDA0884594839C1810D
:100ACC00CFCC84C4D8A166A89B12E6B82F5B959DA9
:100ADC00F8E6C4D84F7D0F4FBF805B0AC4DBBA0366
:100AEC00B4F896B360773CDE932FF811B73A0D8AC1
:100AFC0024D5F80FF2A48438A13CAC784548C46CDA
:100B0C00623BFD849D9EB0FB80520EAB65A1308F85
:100B1C00DB9C3E3DE7E6CC4DBA44A10AD4CA22B0D8
:100B2C00DB2462C3CBF8E6B32E673CDEFC3CC01B77
:100B3C00D43B788A3AD5380DADA40CAF207644FC62
:100B4C00524B62CFC33B4D1327CC046FA5A1DEECF7
:100B5C00A15AF88AA4621BD5F8E6CCA48444A0F66A
:100B6C00D1805A0074076DEBBC3B185A8902C4AB98
:100B7C00C3031A018408B94C93F29D77EA5D4F7B4D
:100B8C0041CBE2B5CFEED5C9531574318254E85937
:100B9C0036E26D2A52F6223272FF6929CF61554432
:100BAC0082902946E15612BAF653ABFDD8B7CFD690
:100BBC00EFAC1FBA6E5DC8BFD031BB215F3C54CEC9
:100BCC00705079C7CFA4267E5F00002C90ACAE95F8
:100BDC006A41C52BACADBC48841D9257E202AD1CDA
:100BEC009457945C75BE62688EA5CFB82DF98C397C
:100BFC006FEC2B2F5D061A42F3AA8EB8A8579C2FC8
:100C0C005FCD7EBB72DB910BA47507CB5968DC5CA6
:100C1C00FA1091DDED2C3ABE11A9A6C65E95DFB295
:100C2C00E2F1C1B36950B71C20298A5C93B8BC327D
:100C3C009590FE9B4881132521BA145B2F88D1EA2D
:100C4C002A03B6F4C33C79A04330311EF0BF69DBF4
:100C5C006421AC68F00A8D28CDCF14764ABDA4C3AC
:100C6C0052DDB6E332F973C1DF0E9D512C0B62F9E4
:100C7C004A00EF57C2BF027C68A1D60FA49828D1B6
:100C8C00E24477DDAA7E374AA83B894191948FDFF5
:100C9C000EA9B4EA088D290309A753A0B86D968351
:100CAC0077DF40ECA4D29F46D79A0F39D3366861D0
:100CBC007C3BD30E5BB7037B06D1A1B586568A98D5
:100CCC00E236692FBF2506CBC9C3F3F142CD4A11D9
:100CDC00E2F83049EB1CCDB9ECBCA715A883880908
:100CEC00A480F25CFA51668BE457123B9C0E186997
:100CFC001F7ACDAF8E71BFA1D2B6E2429FF5DD83D4
:100D0C009F3AF6BC05D90C5549C92830FFA71B35AD
:100D1C004068B7243B542AA1F3623D7A4E129CE002
:100D2C000C58E129F08E674BF6D6EDCFF42FB3DAE1
:100D3C000C13D636E3C319F6DB3C2BB85F9E6090E0
:100D4C006562B0A6C9AFBDB5B378043CFEB07CB843
:100D5C00D4F53B8EB24EF267D1493AC610A30409C2
:100D6C00CADDBEA4E82DBE726498155632FFF08A17
:100D7C008F0F3677688DFC36ADCEC8A8D86AAF9287
:100D8C0086D621CC040DE3853A5079CA398713F7FE
:100D9C00B61E059D0B3D1BA00CE6EDB5956BB2FE8A
:100DAC003231FFE3AF9DBC93500E064DC3B9F22414
:100DBC000E4FDF1880E458213B76CB0C4CDA0D2D0E
:100DCC00CBBA28604FC6784C64EE388A594906E194
:100DDC00D1DEA8383D21B36718EEDA4546A56B93F2
:100DEC00FF464612D01D681F994A6A6F782D542F02
:100DFC00C52F420088FBFF18EAF522D725AF49839F
:100E0C00CEFE0B66F40BCEB842E998862675B4DBA1
:100E1C004B6EC9CAE69ECC5DB6D5A5FC318492F268
:100E2C0000BA92B3137AC949553B0C461915FE0406
:100E3C008CDFE44599983D655C8E10FAA6F878999C
:100E4C000D3B1E2C1DE1831237855FBD978549BB79
:100E5C00A2B5796204E898FAB016D49C1521203416
:100E6C00129F4DE840942D87CFE151FE52663EBC57
:100E7C00BB20C9A23E5361E7CE4C536B79840F194A
:100E8C00276A304C2D62A8E06AF0C98C256027D205
:100E9C00D38A6ADF6E7E30DCC87144E0AE4128F044
:100EAC0091FC6899A3069C9AD1628F7AE5120B7516
:100EBC0023DA7DEE90315EA4D3124E8127A12B1F35
:100ECC00B377957AC7C2FC4BB81C50CC71F7C734BA
:100EDC008921540A910C59904644B25B27A677603D
:100EEC00D205468B4046B62DBCD9D9AE3B28BF0E99
:100EFC00EB2FD087E3D56CE86182EF9769BE756EF6
:100F0C008A60D93735301FDC59C193E03A33BDDAEA
:100F1C000D4F45E222E508EB239D56C0460BDBAE98
:100F2C00106F9840328013AE201AD304600FF8BEB5
:100F3C001E47559CCDB7212512E32706E6D65FA6A2
:100F4C00E73061E45A8438BCE90C91DFC6B1AFCF0D
:100F5C0033A87483E6E8482C194D0A4BF1A6DEA899
:100F6C00A6F4BAC9B527D42FF5A748B19AD737221A
:100F7C004B5E8DE052C89700FC8DF14F7A5BAD82D1
:100F8C00193AE53FE3173CBE9C8AEF5A55423C396F
:100F9C00AF5788195DD714CA2E3736961F0C50D709
:100FAC00570C0046CC7DF611AA97938A3C109C3CBA
:100FBC004C60B1DFD0C201BDB446863FB9BC3B88A2
:100FCC004BC23409897C3168ADC24A3E44FF51DBC7
:100FDC005AA31FDD2E315BA98BA0A6F14B93BAF15E
:100FEC00E5F40618630039A776812497165E3366FC
:100FFC0066E815A7EB280F2B7FA383D70F35E94B9A
:10100C00C6D4F4B68738F03A847B7EB285298D76C7
:10101C005FCB62D2386073440B04DF96FD38F8D690
:10102C0055FFB8F9243954CD4495E760FA046D3175
:10103C00661C6DCE6420A6116EEA1B91B3F214806F
:10104C00B483B344185BFF313AE02300ECD8C524D9
:10105C00C195ECD0FE9F3B16D86536B741F7564389
:10106C00064C1032A2D5B7B0F4C54917AA9A289CE1
:10107C00FD6B54AFC97511D9F4D23E928AA40FD02E
:10108C00214AF4B54B04105D7C3014FEE07B390230
:10109C004538A819BBB2C6C737560CD92B06F98EE2
:1010AC00F573CC902B942A5838928C3920AF40375A
:1010BC00B0A49B3144A9CCD5245A02687AF16A02B7
:1010CC001E2839FD7A753BC52E8C88DD84CDA7FC96
:1010DC0094152277EAD1DFB23DD6BC33C12061A191
:1010EC008A7B9182A576A91DEBD3EB82850D961C8C
:1010FC00631C3B2DCC29F209C7FB35E8FC0D6717A7
:10110C00159E14F97D2E3CA5199BA0CAADEF01EAE2
:10111C0074B5E27302217738E932FAF94CED0B7AA7
:10112C0039374878E4E05B5DBDAC8487EAE0BFC446
:10113C003A77216C4788C0773462BBC02503BB412A
:10114C00FD3250741FE23959DE30FC046CFEB95983
:10115C003E2B4E58733F9CFAA33B067EB3498DC180
:10116C00076F32BDF99CFBEA5AD003B784A336ABA8
:10117C00DB9D5371B0930F1F6847D0B6B3BA7AC2D8
:10118C0060AD6E826A5A0F8EFFD299C7B91A491F89
:10119C00848F4152227BAD61098E9EAF9BEDDD9F0A
:1011AC00EB5FF7EF7EE9AA08B0AB41C9B586631CCB
:1011BC00C2BEAF711492906673160C70889C7B0340
:1011CC002C167D89DCBCA05843F6DD83915B9D8B8E
:1011DC00CD4700675FE34390003DD8A3858B22D5B4
:1011EC003B5200E878224EAD5EF134EEA6B7D17ECC
:1011FC0038C1C11B61EE011C87235945BFDEB5C543
:10120C005683E90013A4775B975A07E48FE47A724C
:10121C0072E860F749B558AD181925DB566E1A9A65
:10122C0055C9732ACE10003BB551B8178638D3B2C6
:10123C0033C1A3BACDD04590683E9AF741131386BB
:10124C006F5F4608EF1BB84609C635514B095290E3
:10125C005DA11C49F68A584DF1F554652573224160
:10126C0061FEB82F7B1A210FD6758158AA03CE5D6B
:10127C00D0A3E41F5E8EFD36DF13DFF03839A37E7A
:10128C004CD8CE26C71E7BFE555150520FD39DE233
:10129C00772161BACD273826014B34C9FC9742A17E
:1012AC00DC41439B537C1C537F734C52769F9A8337
:1012BC00ECACF0802DFF18C2907243A62FA25244C2
:1012CC00BCAA7F5F73568CCD0DC279840DEA32D2E5
:1012DC00DC1656EB2CE26FA4EEACD89607F71D8EFD
:1012EC002DEC740E60BAA188237A8E843991FA1D84
:1012FC00031DBAC6CD56C79CAE5F305722B393249C
:10130C00025251EE97674A7CFE16508ED7DF671556
:10131C001FDFA7D4B4E120DC87EE3E455408377DAF
:10132C00C303F9287D6C2715DB9DB3F74A286A8522
:10133C00E73D7F9CAD25CFB1FB282B8F9F7DE590A2
:10134C001732A24A787CA7CB895D268DF191DBC63A
:10135C00AC2E2B8177ACC2EE20650E838B5681D8D8
:10136C00870544D89523FE3EFADF2D8B720DE8B22B
:10137C001F909D802C55FB36C2AB14C1F736908064
:10138C0097FA9E6714E14A37D244B3891BDA32B418
:10139C000CF5F04423D794100D2AF8D75B6DB2638B
:1013AC009034085E301FA1E0A6CDBFD1C14444DB10
:1013BC005F5B4A69CED8E30A7411DC621737E29A94
:1013CC0065BD9A94E0F593235CF09C82E5B878DADD
:1013DC00A0997A094B0F394AC0C915FD591701312B
:1013EC00C0A5AEBE42CED8CB1B2FD0B27396301058
:1013FC00E08ACDEFA6E95A49158BB4AACAC5733554
:10140C00BD2415BD279BF5D1AD32AA7BCD6DAC7C2F
:10141C0074D7D08F82A7B167B770152645261907E8
:10142C00D89DF076FB26FDE5C5ECE38482F0E25D09
:10143C00A716C21D79F05C69F3473E245CF4362193
:10144C0084FE77B1116E6E5BE8479FD7DAE61C73AA
:10145C0028DD1EACE051B7196DA00627DF2CFB92DE
:10146C00302E8C677AC6C3664C97D77278B998B60B
:10147C00806FD8A7B836BAA2432E897C10F15CD500
:10148C00A5A2FA62753F981878FAA9481F3D43E067
:10149C006B2658A0949EE6B2E3E345970A8D340C74
:1014AC0019A2B3B1D1E46D7447B1E7E75107B52781
:1014BC00BD93D07EA42D25C67C697EEF74D3FED35C
:1014CC00FC8A5EC399A26761B81442D2F9A32DA21B
:1014DC0074C75362CAEA615994CDDBE34A88C514D8
:1014EC00218F5A2B7BCFD9B5D03D7E7DCD49B2F320
:1014FC00357F40C1E5A8D37752A4174AD4F5F9AD8E
:10150C003C2AB6AB037E17EFFB74D34164AFC85CC7
:10151C00D0E1D58D049440D9EF3CAE5A8F116E7446
:10152C00036980D491A6D4CF7C2CA8F935BC7189E1
:10153C00041D4EBD54B798E0B5E5C483658A81C1DE
:10154C0049A0A1A4CB04BF0B6402821416EBB45FB8
:10155C0066DD9A0B1248A62D76E5B2603DF6C1EA1F
:10156C0075591FA4B806A3BAA860D877788FC7128C
:10157C00A2FBCE236BA425BB34EBA143F144F3D0E7
:10158C00C56027958A14FB7C18C2259A0844BF1A9B
:10159C0096EDE421F6A3AFC1BF71344D5FC1D1F01C
:1015AC00C68018B2EEC9A4D0B402DD85D263BA9A53
:1015BC00F7BA3412AF980928A34972C289B692A31C
:1015CC0095971631A2DEB08B6D66DDFED624EBBB93
:1015DC00959A71807FE1E343798973A746FA36C106
:1015EC00F0D3B32422F7565D15CD4AE187176E145C
:1015FC00A6DDB8CBE28D8EC2D254C76316DF870A44
:10160C00AD68D5EC48CEB5947ED176A6DC4622F1F9
:10161C00A10DEDA721B0E8EA71C3F985529F5C37A3
:10162C00E4A7229B3D931BAD55FDBBFDC8C284585E
:10163C001DA9293FFBA63C44569A98FAA9CA0295C3
:10164C00249C8FC89D7D892E0B25D41B21117E587F
:10165C00CAF410D15F2850A944F1333CD58360CA39
:10166C00AAAB665B3C3B01064AB0EC5ED8353FFD4D
:10167C00D5B9DB07693757E222821EDB0506C103A9
:10168C00D7580C44B16011AB7A6591B568C3879A91
:10169C002876D70D58BFB202E7DE5191C538516B91
:1016AC004E8CD1AE3EDA0FC452438ECD1D3824740D
:1016BC00DA0FE1A5A26829CB5E297394D1D3C69E1B
:1016CC00A3B8688234915B1466538AEFD20E9B7A6E
:1016DC00B2D8896B47AA22FE455C38FEC8AE213CC5
:1016EC002D0CC5DB833E202DAA74174F6422D5F830
:1016FC0097D88A10BA544D409797CBD0382E80C2C9
:10170C00AE4674DF690A31C6C1F95DFCAE3D7E663A
:10171C00B09410D39C2983DDFACDF495BF76338039
:10172C004850C9C5B67A2F0771BD32835F6A0A1952
:10173C001137A74E3D7DD8B2B7A5B2197ED90AB8DC
:10174C00BC753B4E26B0F43F70413391C4501F57CB
:10175C00F31340E709FF3D4FE76592CCF7639A56C8
:10176C0058EC9BB0402C98F2289ABB93189FFA63C4
:10177C0054059BDAE78B977ECA669B567F544E9333
:10178C00C5B4DD9B28B65D9E950BFFD6B7A83C3A39
:10179C00624897F867E8B98C6A7F1EF4C0E25DDC9A
:1017AC0050F2755D5050652022AA729E6E22C1B116
:1017BC005251404E47D8467D87740905EF58C3F205
:1017CC006E8D571EC01ABC6D68B163A6B8AACDC485
:1017DC006B836D3A3F80D3F64C587DBD51C9063CA6
:1017EC00BB5B36DFBF8CC86DD8073D627E30D34300
:1017FC00C85C77AB987B000C8BC43531657B9275DC
:10180C00F642EE9FD3F9FBBBE142439FD7E6B4F51A
:10181C00C290EAB6A9A401517EB6C59F2354576362
:10182C0077F061A14CBB1E40E8F16496764197B10C
:10183C00E2768634C0533265156C3B924117585E84
:10184C004D6C4335C7D12358EDDE5DFE82D6E74E95
:10185C003922BBA1958FD854FCF7DC66BC495D5985
:10186C0082353124BAB3C06C4AD7EDD15A48894578
:10187C0071202BB4CA19031A9068C908AF84B69C9E
:10188C00EA66DD30616910452154FD725A7118FD0C
:10189C00CB2D246A7FDEAE52058D333B814851EE51
:1018AC009C0D0DBCEFA9C78ADB956A8D8505C0BC64
:1018BC007833620518EB472DA83D3611609996FBDD
:1018CC0091CB581E44C6FB5D555A095042622362A7
:1018DC00A5874933A033068E8E56097BB4A050B32E
:1018EC00B1ACD420A645242AA04A0B8D3DE250FB76
:1018FC004B88C23C2B1CE04E6120317A72705EBB6F
:10190C00AA4D3ACFB960E7B79F6C24F93A0FC27C65
:10191C008B863123DD8B93FB1D05093A5121793DD3
:10192C00B6EBFEBF8EFF58EAD851DBA2629C99DF62
:10193C0053FC6AC319E866DD1236F777AEBEB945BB
:10194C006344E79402EC44FA6467054DEEC33292AB
:10195C00569A4763A8D310A9C1285C8D3639E30881
:10196C004855967C9512DFF9F00AD7561C95592AE2
:10197C007214B78830976ECB57EBDA20113D5BECC5
:10198C00F2885DA7D49083CE0EA102088650586DC4
:10199C000DF1F0F5D1A592032095A8533560AA4E10
:1019AC0098490C2FE5DC8530206897E143CAFD840B
:1019BC008599B3BF24FE61BBDD60B2FD3CBF5A8488
:1019CC00F773317791EA6B643C886287F846792C1F
:1019DC0095FED6ABE9AD610FBA481BD794E6D2FCA5
:1019EC00CFCE0137BEF931E46D6044BF02DCF8A6FE
:1019FC003075FE81464F624A9B850C8770A7834FDA
:101A0C004713216AE7907D0110D5D2E4AC1332DA8A
:101A1C0050ED8C6C610EDCC79273A3E444165257E4
:101A2C000799C993B861619F678874BFA179FF69F1
:101A3C0097CFF92834FA60F6D6D1B51D4EE1218A3C
:101A4C00F20648DF5CC9E9FE098A4413EDA6BC77AF
:101A5C00604E58A22D73666C3CDC10E8D9A79BCD68
:101A6C00BE9CC925A48D516276B9936226290B6060
:101A7C00F9FD3888087906DC2816EB388E43F0FE21
:101A8C00CEA0EE282383ABF4C273F332FA340E6B80
:101A9C000660EE3A21761A19A5D5CDF74F482EFFE0
:101AAC0094A1F5C895CA3D8448339924F54B3EB4AE
:101ABC00672F57DB088B25B7C4B60534C030EE0052
:101ACC00CA4B86E32C1587138CF9F2CF8F10873213
:101ADC0087CD0FBD77310F091E4D8B40C60999B2CA
:101AEC009A0B551D6FBEBB0135A77510D94ADAADDF
:101AFC00EC94AC17A378198695F88474A924F16C2E
:101B0C00BE12CB45DE2BB5EFA7991E1E0E578102D8
:101B1C00CDCF19549F68D10CBF4860EED5A9740382
:101B2C006DD072470996A043FE7B0967C358A9562E
:101B3C00F2BB43B633B638E6F02E4531381955951D
:101B4C00CACC7E60A5DF7B7412AF81A0C5944B79A3
:101B5C001F06846B2E99C8154C01458DFCF66FD66B
:101B6C00D319B2751BACC60EECA96685C04EDACC87
:101B7C001E9A062857BEA7C56C03FEC4552EC50376
:101B8C00B3910663F3EE6EEB288A8F73754458821B
:101B9C00CAADEDC7AF79A2DF3C7A539CC73BCD0FE2
:101BAC004FF143B0C474C94122A37EBAEFD11227BE
:101BBC00CC6A7526D56A107F0588F9486001B13367
:101BCC0019F5ACE00B5EFFD320BD197FD3CD4FF9D7
:101BDC0078A0CEA51C90259A43FD0874585DBDA62F
:101BEC00AE0A144E76CF723F01A81961030C143261
:101BFC00929045D9EE7FC0B7EE7F9B7AEFC106720B
:101C0C004AEB36300B8D6CD47D4CF09E68239AE6F3
:101C1C0058183E4544C765CFE84BA8B63D9021A760
:101C2C00704198EC335E8E87B20428549CB86144A2
:101C3C00CA849CD4A0CCE5DD910B017A24EB928B69
:101C4C0019C157F8C348CB819C57BC57A632072201
:101C5C003AE6000E311BC1821AF3F220A953F16A45
:101C6C003CE5145C09D49F30E350CB072E385E0E54
:101C7C00CB0924385B9F4D619BA1F8123DA49D6557
:101C8C00A8FB66428870EF4E8D69BD098F22516C9E
:101C9C00C1A7B168B9F1FF8AB3CE30010E94279B6E
:101CAC00EF88B24C107A95A0DE30AABA7460385422
:101CBC0036C0E3761E7EA963E4C0120FD963BDEA79
:101CCC0013BF90CBCAEAC619F4E6CFEBD9BFBF9EBF
:101CDC00190FCE8C4132BEADD4B37FA5AA8F864FDF
:101CEC00C4E5D3697F7216B46C15720B984CCE1C7C
:101CFC00D405B651ACFC759AC77099DD0A049C6C7E
:101D0C00601DB5FFBD21DF3ED56ED3AE24BFEA9773
:101D1C00D516194D05428540EFF2181D56104D5C35
:101D2C0048142D1D77211E99960EBE9B347C72C2D1
:101D3C00BC96CAD1FD16582F573AEC39F7A6032E8C
:101D4C001C5B8091A6E60F5E42E7957AA83E20D3F5
:101D5C00EB324B93F5D722C70E15D3558AF4517A33
:101D6C00D2B9426C584CA27CB9877A4088024E0A90
:101D7C0097030933A488939C82E42D72C3EE749666
:101D8C007E6B9C9335CA985096978DEFDBE52DD4DE
:101D9C00B17CFE30F41DE548EF276A1B5B08BA0FD7
:101DAC000FABA5DA9797FB3A1330F52B9E74D064E2
:101DBC00A203930824DB8E27D7839B2B9DE7EFF69A
:101DCC001323AD74114C994547B2E8A18CF99D953C
:101DDC00AC86FA13EC5BBDC16408C2D7B862B5A17E
:101DEC00536D2E3E7ED1CF9FADCC736EE2B79DADC1
:101DFC0051B6403259C411E72DEF4947BD7C01B6AD
:101E0C00EDCEB7BA3E7465774ADFD06E221BF7E889
:101E1C0081236731BD70CE3095F787255B91D3A8B0
:101E2C00137C2B7276EA4D1CEB1DE89B2F7255CC64
:101E3C0001BA5813B4A483BD19041DAB2C0BF3BA0F
:101E4C001233ACF90B2A1E887AC5AEFD2DDD7D262A
:101E5C001CB6409C899776E9C4F178B51CBFEDFEA1
:101E6C008DCE692A0D011E8BFA924FA9E76BEEAE4F
:101E7C009915CCE32F21FFA4AE08FF0191EA637AF8
:101E8C00487D2E4EA892F732198EAD89537453703B
:101E9C0071E9C8FE8CFA4FB228D9A7D21DCE235DAA
:101EAC00697AEE23A04375A6922634B5ACC4D13B17
:101EBC00C8F7A4FB34A811C8DD5F74CE469E630E30
:101ECC005E86AB7BED9F0E5F371E42371A0394CDB7
:101EDC00A068802AF6DE1C57BBA32EB76513E70853
:101EEC00547F2CEC19361328CAC908C874C26E1951
:101EFC008C1891DA3A1E72733A4CCF3B9508BAB3F0
:101F0C001D1FB96FC1DBBC2D6903CB158A3ED3E114
:101F1C008216E8B0470FF79C88E30F8165A73988D4
:101F2C00FD33B9A349804B2C2512B95C2215E1FF76
:101F3C001363F2C8A7F74DB01E729B17638FCBA922
:101F4C00C7F8C8D855BC8AC92BE2F225268528A922
:101F5C005C3A54C687C07EAE07416154D9BCCCA450
:101F6C00D8D3E1ED52927C38A4A567679572B64C34
:101F7C00F7573DBEB9B2A0CDBDB4DB4A8B47020FBB
:101F8C0041A36753428DA05C109233ACEDAAF04193
:101F9C00539F242B56B70D4C0888DC7C6E49DA1DF8
:101FAC00F1B2A0D6EC54F846A08ADDBDE147B86288
:101FBC00C936EBC768EF8C55E7779CEA324EBF2EDB
:101FCC0011D397B4CF6E4D11572DF1BC065541AAC4
:101FDC00372837D53CB79B518F5079C7F2CA99DA5D
:101FEC00676DB5A6CC03647CE6B5285AE0B2D31174
:101FFC0025188ECD41A72D7D2AE7DF662C1B86EE9A
:10200C00E240C28B4E2FDFF47D243633F9EEAE3B2B
:10201C000AC9131D0DA36FABE7DD9EA3CB2EDAA26D
:10202C00B968AD63A423B94DB70FC1F69A861312E4
:10203C00729D36B3F83C88D0C09CCDAA70F6CBE626
:10204C00D7F94BC509190CCC1B155E0E18C3B80A71
:10205C0045A5B96188D09180F4BF2694FB7279852F
:10206C0015AC313B9787ACEA93512478CD8B5953FF
:10207C00C59376C586B306302F245689A7BF1A3868
:10208C00BB83F08CD0DEF5CC6BD6908C646F306556
:10209C001233C99575FE72354BEA7890940FF7554B
:1020AC004D0419EA0367F573973DEC2F8A2141C65D
:1020BC00ED61E3759FC661D662E59405A7FE5CBF32
:1020CC0086D95FC3122D8CD50ED276BA76773F2780
:1020DC0061D88BF4BFD6B7295C20247C39135067A8
:1020EC0009C6BF03F776FC6F8E8F23A095D5B24F30
:1020FC00EF96374B15F65F9216B0B6ABEFEADF19D9
:10210C009735BB12A37707550F8A083D3FD4935CD4
:10211C00820EAFC68E71C866AEE9EBB17276BAD7D5
:10212C007E614BE50B277C09CB831B41F2FB572EC1
:10213C00C03C9DFF0519C0A6E24114AF33F7ED4535
:10214C00DDE047CF4D43BDE3AA8309EC0036299D62
:10215C00F0AE70B2C36AC308DFF879744E261A1851
:10216C009EEC43735A7A357769B65E9F05804C9422
:10217C0002A76113FC56A60F40B43D582832EF124B
:10218C00D0C1512CA3F31A622DFD97B1CDFEAAB785
:10219C0017B9B2A413988AD5E8FC6D35D94D5BF705
:1021AC00A4A1673B1F3EAE397A432E2F1ABCFF2DDC
:1021BC009E61913EEFAA99FAD412B8115629AB1C24
:1021CC002DC2752D91278F64D014E047DB7669C33F
:1021DC008C554697BB1F34BBE7D946B4B34A7B69D1
:1021EC00D857F488FF920A649AF3C6CACA9FE89239
:1021FC0024F450E3AF108B4569D8C8A4F6DD24F362
:10220C006F9F011A895B19E747B4F5930DBA30C279
:10221C00D38F1387AEF7833A458A9522F858B52B9E
:10222C00AEFF8CD21ED15715CA6DC85AEB1380AABB
:10223C00DC4E8FE6C88EAF08F92EEA071104EA4D82
:10224C00A27DF121690553AFED97D80C5B84543D09
:10225C007CFC580EB784F830189181CE54660EE091
:10226C00C901BABE7AB9681ACB81FE49EA8F0E5DF4
:10227C0052F97B3C6D61B489B067E48F7DAB059FEF
:10228C008C9E514535D1AEA4CA0F641519D1B25BE1
:10229C004D5D0D079111D4BB9067419B8C4C57A0A1
:1022AC007C132348511C05C9CAD63F95AEAEF0AB82
:1022BC0080F3016C6A2C4F14A73DC80E6DBC2C60CA
:1022CC008AE735D57D2DD40D3A25DB64347AE2319D
:1022DC00E8E7CCEE2E0D55B46D2E82B191C9796420
:1022EC005C8A873C49FDD3B08F397820714BAC0A9E
:1022FC00C43572B192FE9E2CCDFDD66F871C9D8885
:10230C00F1863066A9ED4E8A0A59E3D13C73621608
:10231C00F9C94D8BFC5D93C99AA064B48FB3C2FA12
:10232C005F51CCF68B040CC74B53BBB1D8D59ADCA0
:10233C00960AC8308526E3DDC1A411CF8720660F2D
:10234C006F54016CE7130D093729664A4D79A16268
:10235C0026C880DBDFC56A8F12697B92BA4B5F5847
:10236C008C869799A56B85E48960A92A9F9129731E
:10237C003B37B56C65CC195FBB7B1C44AD2224FB91
:10238C002EE4C1CB0C5E898E9A72602FDF62EEF167
:10239C00FD380AA15C4DFC6BACFAD12C8356A4E63B
:1023AC00C8593A37B550D3230651373B170DDD0DBD
:1023BC003BDDBE25E426554F503F0E38085DF3B784
:1023CC00842E256ED786D87BECFA2D570C8D41D8F0
:1023DC00F1DE17BDEEC4625F1E6CDC211B9906DEBC
:1023EC00AAC7DFB761689F59837EB3F67C57E47D3B
:1023FC00BE1617C830EE4D557AE8611A18F75D72A3
:10240C00835C2EBAE0A5EB727FD01BBC7AC7A67694
:10241C00BF9CC8351112BE54579AAF27860F204661
:10242C0069B5DDD08F45DBAC7FEF4A8E79781C9295
:10243C00B1108D8100F2E46556E994B9ABE7ACD7E5
:10244C0095B6F7EB155221D0BA094D88653E0DDFD4
:10245C00777ABB31E84000310B5C125A82AA748245
:10246C00DDB88BA3BE4402B0F9F9BBF9D5A5E8CD14
:10247C00C90D8AFEAB0CC2DEA830027FE9B8CA2BAC
:10248C00C5AE297BF43260F5B3147975DAD070746B
:10249C00A8E46A524D0B15E718D988100FE41931CE
:1024AC00AAA2593170C99BBFDB9F6842CB706605ED
:1024BC008C8962C73F55232628BB4CA5D09D301371
:1024CC00991E5ABEF7D45161D56E44A20896109A43
:1024DC000ED5CDD6EDD45A1B91331235B73C7316AD
:1024EC00DD39F43BC2814858A1B34C6E88DB0348FC
:1024FC00345D6732CA43E5F5E666D6F5958DB65E72
:10250C007035AFDD22AA5F6FABB09C7E338820792B
:10251C00364A3E5AB6A08B2967680752D6B12ED5DB
:10252C0041F61550AA5B21A2991C9CFC2190E29AC1
:10253C000A2BC8DD2EE2973AB8CC88C5E1641FC5DA
:10254C00DD0E37105C6558F7AC30FEE1654EFBFADA
:10255C0029425A1B4F64A473509E16F4C424D3BC56
:10256C001869A792F4133A9B2311321BE62338DC2B
:10257C003B169DC0B61C601EDB9B5F2D11EA9F07AE
:10258C0003BB3B3BDD3962B959DB36BCD3B67ACFE2
:10259C004EF395803B895D9C0A0D0D53D36BEC87F4
:1025AC005DE21741850ADE8B377B6D5C7A366E0DEA
:1025BC00934D8B7FD178032CF2D7E231835CEE7D87
:1025CC00C9FEC9B5F79D125A48FC26884604FA671D
:1025DC0071087C4678A16B0B54B0AD33CF910E973C
:1025EC003C53A4C439351A304D3FD2535EB81B84CA
:1025FC00612359FDD77EE7B3209F97DDA756F5D809
:10260C006926F8962D8C22CCB88FAC7DA974C207A4
:10261C00C982CE899974595A4A8A557FE38041AF51
:10262C00D68364B15FBF69DFB975849958A9CD149D
:10263C00C647317E8C4D379D3A7A9997EC787672F5
:10264C00755428802EE971108E265A282495C04482
:10265C00AF83364A8726A1823C1370A3FAED24BBC4
:10266C0008CC2B797947DED1FCC25BE05F96CB6B53
:10267C00C74C45987E2F014ABE4EFE533ADA57BBE3
:10268C009B98DD3E47BA4ADABBC51A0B2A9732EB48
:10269C00F27F2AA9C7651B948761F2A108A8BCBE6A
:1026AC00F1F031EE27F6DF0D19DC330F86B5FA8B1E
:1026BC004BCE289736FCB5C67FD9FC2D6B297F50A5
:1026CC00E50A37A482CDBEFC60A5A74987B6FBD12D
:1026DC006984AEA57F5C21A2259E6670C4ECCB4EAE
:1026EC005EEF7F6FFECCFC6511AD2AE170F29AF2C1
:1026FC009E0409BB3F9C2C331D15F7763B876B362C
:10270C00C892A109BC6EF8AAD69C8FDFC4535A2874
:10271C00AC1ED04381B7A1F4AF7F34461F89157D21
:10272C00DB7D9DC15D883EE16F6889C94479819EDE
:10273C009CB47ABD5904F080B752D3ED7F89AD09B2
:10274C007DD9E598BF53F3637C73942ADF78E90E47
:10275C004DEA8286A7D7961C684B263B21CF45B8FD
:10276C0082B8686077E8B163EB19AB5735EC0F7B37
:10277C00910CB75B54E80A36CE5912087F3BB36311
:10278C008EAC65155DE2351A303E85A5F61D0BD273
:10279C009E2450132DC32440CC9CAA57FB0275EEEB
:1027AC00609BA1C34B22AB67D7E2A87CE1A2D019F6
:1027BC005E4642AB344F21803DCC11610A41AA9058
:1027CC005026671ABB29B720C09FF08BDDFBC6C013
:1027DC00A7A88871317BE6047C8266D4AA2D750982
:1027EC0057CD9E125E8A014E7B2116D0932E12DE9F
:1027FC007B36927505D62045FE35EC1C7BFF1343CA
:10280C00DD414549D1947BECDEF1AE6355F81B19E3
:10281C00E6A47DEC34E0892BED9CB8A2BD8CB442CF
:10282C00477E210175A7725AA6019EDC0A75A90B79
:10283C0023FB4999EF56E1BF97BF66080C2AFEB1FE
:10284C00DECA6AA9C0B91804EA93CBE7BAF019E654
:10285C0082A62454583752F88738769BB6CB0D0293
:10286C00970F31BB02A4D4A1EBD01441FFDFA11B05
:10287C00E2D301833741B68F3284562A945641975E
:10288C00A78B5913E6F32B06712AD69C55C1C83079
:10289C000E086B85C59E5678BD74235E41CE025CD6
:1028AC00132F3A54408B0EBA77E009C892C90780AF
:1028BC00018FCDBBB3890DAEA5E652BC3E74CDFFE6
:1028CC00691D4BE11791D9E2B24ACF74F16E645F86
:1028DC0036C06A4676D5ADA708A90CD8F913EE35E3
:1028EC00BB0034CF066894CE337E2E716B40FFAEA6
:1028FC00861A2E557F50BAE0B48C6EBDCFF7C6C485
:10290C006C30233BEB575DEC7E54F26FEC9B4965CE
:10291C00F5FAFCA64FAE63E186980DBD814B6222A1
:10292C00EE5CF5054B047ECDD74C09AB6629F083E4
:10293C00DC8CEC76C81F86886F5D3653B1EE029541
:10294C003B393487954AFA68F121410F53A88CBF63
:10295C00C233569173060C8FFBEE3F1789E7E6BD29
:10296C00016F46F1D98A8CF6A8C94D4E21DFD97773
:10297C00DECBB205EF33D1CE6021670B93E0B020F4
:10298C00BA6A902DC28E87F5C211E418F6884707F3
:10299C00E348643D6BF35031FE656EE01866D57EFE
:1029AC00E744D166531675134B04F3DD57BF3887D4
:1029BC009AD9B8F4FB4C5722BDC1D373BCE4150BA8
:1029CC002C08C3D16058458C7C2D62E524431BC96F
:1029DC001FA3480DD04CB63FFFF7A9B388DD415576
:1029EC008AF1DA279EB1A18BCFC1B1D1A4332ECFFE
:1029FC0048BB596D79FD8B77F2C5634A19496CC593
:102A0C00835FD8C2F8197AE3E5AC689318D97E4590
:102A1C00BCEBB220EBC2A3367E6743BED3BB867F32
:102A2C0081C16364992FFB56A00F05C0013F6E60F6
:102A3C009424091DA4C0A3DD2AF7DCCDFE84FD3B44
:102A4C00B5C9752AE1236C609C3B05D59B0637A95B
:102A5C00DC2DBBF81B3DAC845DE78B5772CF4CA1D2
:102A6C0024872FCE24E1FCDA73C186BA7E9B54D323
:102A7C002142E2B76C1E4C0E05EB9EDB0FF8D70C17
:102A8C00922620D2C44E5804B45C6C1945A74C5EF7
:102A9C00273631550ECCFC9F329C1F9C7E9981674A
:102AAC00E3C728C844A3272BA40110029B6AA64B9A
:102ABC00D47C7A13E54AB1D96F71BE91C20BA33A9B
:102ACC00EDBEB4E9591FDB33CF1792E04F74713D63
:102ADC00C3FE892CAC8D6AF716EC7795B3A942C06E
:102AEC00B46FAC786E0233BCA1A647F46DCD41D463
:102AFC001BB96B45BC1119559C4330FD6DD890CD5D
:102B0C0095DCF909D7318049DDBC690950C01DDC61
:102B1C008409CA682F0F3315C7710656FBB6EDB47E
:102B2C00DFBF00A173B31359B0EBE0E7B0721AC06A
:102B3C00456F13D310CD22BB233E9D53AAC6F5B1CE
:102B4C005EA4474F32CB43E84A400D3BD4D000E85B
:102B5C003BBBA1E81B9081841A0834C728A03FBF57
:102B6C000DB77C92DEA1B3A785868B30DD213712A1
:102B7C0082B0E3B5CEF195B0C851F58C469153A116
:102B8C00B5490D05291D9D28C40656E26EFE275435
:102B9C008411B6EAA38D73DA92F24AD15A6EBB0352
:102BAC00EB17F4FA84649606FB6DEECDFB68240FEC
:102BBC002D8E03C8E0931A2CEB1822D3753E2810E7
:102BCC00B8094B8A696902F1D433C0BA01F4376988
:102BDC008D25DC2DFB3EA7171A19DD615A1838F923
:102BEC005592A5AE70F91561CAECB9F4F6383AD421
:102BFC00CBD7B1346A27CD7F8F70B34F62721E2E44
:102C0C00DFCE7493A59301F932697C5FFAA923890D
:102C1C0048D6A098E74716BE4689932A7BC19EE505
:102C2C000AA652EF66EC0574BAFB4FB22860A0CB33
:102C3C00643C3C6E2F03FF7F72F4FE1DE5825CD476
:102C4C0026C747E1420FC27AB48C2CF038ECBF6037
:102C5C00B863C44414598DE87425023520C05E3D18
:102C6C008A998EF20EC4826746EDCE7C304D25C813
:102C7C00F1DAB8CEE9A0ECC3FB870B34805B927E13
:102C8C00482CE3A2DCA7EEC3425ABE7B0C0E85FF98
:102C9C00F4DDAFF981D1D4A4AACC3948D6DC5B8C55
:102CAC00994B5F822F5634C38D848613F26294F94C
:102CBC00DE13A1544FB322881FEFCB5C387B0A6420
:102CCC009904B742E0199FF0E9D3B60859FC60703B
:102CDC0017F8C10D488129F7255CDDD9112989A484
:102CEC00FF7A66D33F681DB8DF24541228B398B519
:102CFC006D29D6D4C29D45871E452B787CAD0F9E81
:102D0C00F9DB4A04F306933B5CB9D8CB268D0379E7
:102D1C00303728357C5BD18C8C1D37945AFEDD3BCB
:102D2C00C330F19DB3244E80CBEDEC2506C31104CA
:102D3C0019366B24F84D4DDC68B59520777A85EB08
:102D4C009F04222A7D9EEA2EED1FDA79D18EAE7A6F
:102D5C00B9EC4970FA1DC1F55E64A392C504EB0B86
:102D6C007360CCA4262BDED2D524EC076D5F51D535
:102D7C00D3EAF761AD0E419941BB71ECE3F3FE363A
:102D8C00798233206E725D0A564DA707DCDA06FF96
:102D9C00017509B5CEBEA52E3F70C804CBC95EE641
:102DAC0038F1F9D99B0FCDF7B814D56ED2DFF64AAE
:102DBC00CA2BBB5D94675510495B7BC5C982436BBD
:102DCC009858CE786992A08585B0F68437683CF225
:102DDC00E305EDF445745D1AF73370B567B1E8F1AE
:102DEC001F1071D1075B1B4582F55572713EA0EC2B
:102DFC00821CF8B394835ACD8355979079B57A5247
:102E0C00EA5328E2EDAEE23551578CAA11FABB1FFA
:102E1C0005D1A731C8B6DADD5892424A70DDDB2EF7
:102E2C00E5351C267E12393C2B74E4B6AD88A837E8
:102E3C001384400B5B13611EA8EEAEF20A81ECD238
:102E4C000EF905012172282E7507CEDE27D3D41A70
:102E5C00DF7458171A488756B7F228E3D1F492E575
:102E6C00BC68DDEA7B93A6B972805B4B577B7B2FEA
:102E7C003AEA3C0D8AAC9105A839321D8779EDA24E
:102E8C009638C18DDFB982E8C305F79C339E20CDFF
:102E9C006338C4A6BAC9356A83CFF74BCC246FD03C
:102EAC001AD96D78AB558AB38B33211E0CD28D3663
:102EBC0071247DAD1588EFEFA8116F03F416B3E9FB
:102ECC0028611B5C1CF9DE5CEB1F6393F8B009876F
:102EDC004BCEAA1C61D017DAA5B505E2D8C4BED179
:102EEC00187813452B5BD246057FFF8BFFE8CFBBD1
:102EFC0099B2E528317A59D78D9F9F7131CADAF78B
:102F0C009CD7C8AFC2B719305BC5F2AA7F6A8817C5
:102F1C004AB0E6D8427401AACF7F877DAF93BA46F8
:102F2C00189BF9D2148C8F7180A6F786FF23009919
:102F3C00800B6253FAC2FBC70988FC2402CE63AC37
:102F4C0005E413DBF577FDBDE5AD34844799F7C98E
:102F5C006A0987076B8CAD75AB3C8AE9FF178B5DF3
:102F6C008D2E738E69BCB579B16A55963BAC5827DA
:102F7C0025141CC155D19846606392D100DA0D2FEF
:102F8C006AF6EDFCE8DD71C53A589FCA77B4CA40C1
:102F9C0084CC6C4AAF9F22DFE3DC5F8BD3130CC570
:102FAC0038B91D544F01984E7F0AE2C9D97CB3172A
:102FBC00C31B41E4AE2AD9A43A9F18A45A423286C4
:102FCC00F9EB7D1ADEF7CA2BE5C5719BCB4F4DA5EE
:102FDC009B7069316121C653488952466E8C08EE4C
:102FEC00C898AB2853C43A0248B74E034FDF73DE80
:102FFC000C0723B9AED8C1FA6127817AAD31D3C39E
:10300C0081A15FFAD7A14AD7F950DF9F9D3146C005
:10301C00FC0CE43C9E8784C505D1B4BAF275D83952
:10302C0002DD8A886917D3C70A3C976C3ECCB5D8A9
:10303C00F0F304DBD896CBC9EE1B99E9AD98BDE74C
:10304C00CC23B4C86C62028239FADF1527C7D07062
:10305C00BA6B83EE070D68F1CE55D9375327525D05
:10306C00B633EA789E52631E10A3532FC25BDB6902
:10307C00B3D5E9C6B8FE3EB2BA80C6F0957113C49A
:10308C008213B8F6918AEA29A3CB5B81B4C024B829
:10309C006E585EC3CE865A220A9AA00C84A78E9FC5
:1030AC0018B22DFF1507289B55D08B90D074436810
:1030BC00202871A89043AABCDC4F79FE4275DA2A0D
:1030CC0062127EA2391D8FA67CB16ACC780A8D5F04
:1030DC00947CE0F087F93E2E8877122F4D85AF2631
:1030EC006885B24B88F33DD5D8AFDC5FF35051CE39
:1030FC00AD89B5FCDCED16DB5566A1738E74EB3334
:10310C001CF0F91537C0457BCAD3E1B5CA031919B0
:10311C0098C5DEB80E16080A06043EC03EA711BEBE
:10312C00BE01FE0C0447F9BF5C978415B068B5B8B6
:10313C00B76D4131A20CA064EC30497E21DF708860
:10314C008541D347A06585EF5FEBE5F6933A849D07
:10315C00BFB64DB5A24D645AEC8E67DA9BE6216E74
:10316C00C425C6670A49C380FAB0ECFC2CBE96F69F
:10317C00B433F9A876373A7D118BF670184FA966DF
:10318C006EB4A5B4860D9C8FCC191C4B9ECBFE182F
:10319C00FD03C8910CDD2BF1E28EFD8F3177980485
:1031AC00BD383C3380395F0AD9D93F2C4539356558
:1031BC001D1663673FFBB4F1A114D135E0BBB91FF9
:1031CC000083AF7073B72C202A72190A2DBFF1102F
:1031DC00BB3FEFFBE100B3C6A39B9F110448918258
:1031EC002EE6FA740FB8FE3541DAA47D648468903B
:1031FC0002EFE857E0F30AB36178A801663D892C29
:10320C0047B01DA0B55EDAABC97E1B4F5C802B4C62
:10321C009CDBA0429E53ACC0A86EBE9E95679ECB15
:10322C00C751D723F7F8D4750326CCE1CB6E1E0C0F
:10323C001BE5DCFE41CC815056F02626FCE559ED11
:10324C001391B8D6F85FDA74DDA21DDED9B9FC761D
:10325C007A5E85340C9DBB32C7D3DEFDDE23381875
:10326C006DAFA5CE13860A62CD1AD6640E37606791
:10327C006A537D71880B30977CF8FBEE9A39CE82BD
:10328C0091E94260283CE6276961A7D084483A7BE3
:10329C00CC9B621B7988673AC3C9BB117B6E3A0C15
:1032AC00C97B0D0C379B9C502505410CB4E9851E40
:1032BC00D15AA8F754C7A22F19008392A3143C71BA
:1032CC00D5A3E5A408F4C758F169FCC17D6E51EB98
:1032DC0082D5985EFA240C6C00193DA364940DBC45
:1032EC00CC131C97DDEBF80D9447D99CF60A3332BE
:1032FC0016D4D00196396417682B2E51E7AD853A58
:10330C00B90D7ADBE8A8B3C808793D32D2F438C2DB
:10331C00A47536FD268B178DDD7D7AD9A2E5B86BA9
:10332C004C83D36997B366CFEF5E22EDE882C5AECE
:10333C00CAC732B89466428AB13CBAA9ED02EB5EB8
:10334C005C063A69F62D0B7A1E4EB670CF086147B3
:10335C00723228DC6717D843CF4000196489F27A9F
:10336C005BB6C44C06F7602F21BB43E87BE7699042
:10337C00C4E74048575077852656B22D28CD8DD3BB
:10338C006D3DBFEF0E60FE5EE8308BB53A74F3A076
:10339C007DF0704E4C165AAF9DBAC8DE9D8A80C126
:1033AC00A53CBD6D387628130AE189F117569C6A45
:1033BC007303120AD3AB588642B6E598AC61F0D5CC
:1033CC00D4250064EF0D4D65534C25D734BBA6EDC9
:1033DC008100C641870915544ED088F81E4B2B7CB2
:1033EC0020F09A2067D718D081540556050EB3DA11
:1033FC00E844361D6A8798C136C478F277CB6EB430
:10340C00FBB49CE42B12A9B3A50A0469519B8D74DF
:10341C0043DCD8DB009D9117099E83814C5D99D5C7
:10342C00DC5382977303D5752BCE91C3E593997FAB
:10343C00AE1DDC03AEBF04246A23A6C828C49EBEFE
:10344C00D1DBE9F0CFA3C96D23EB77159D19754638
:10345C00548643EAE4C79C92244347691CD141CA71
:10346C0011F93BF33925AEBE6EF6CAB6E332B78A14
:10347C0040E96BB7559CE1FA9D5C8905C0FD719ADA
:10348C008C5AC5B061D33BE7C761413D7DE589806E
:10349C00FB6CC42A27AE766FC8E735435CA4A094B6
:1034AC0031AB46E6E8C4D1336C622EDAAE05A182AC
:1034BC0019A557AFFC9EA0FBF54714A3D3B8B5369E
:1034CC007DA172C68A41A1D0C385A317AE2F0AA9CC
:1034DC00AA4A7B24730F86823D824516319F9064E5
:1034EC008099742CDC79C2FE2A71D77F5BF94A97DC
:1034FC009788CE822586457BCD778A47AD7F501E37
:10350C0071525FC07364302E66E0DAEEBB4F1C6BF9
:10351C00DF79DCFDB83F6EF89B366638B8AF688B48
:10352C00DDAA506E3F4F050799B942B2A99ECBD97F
:10353C00166242EF6699EA39953ABBA8BE51CC8720
:10354C00D1211193E9D12C76C0D0879E8BA3A4BD39
:10355C0075E96609C150254025A5ADBFA9747A63EC
:10356C009EB110DE17575D1DBB89E6FC3F0D10FDAB
:10357C0060B9ECC7083054A7F508170FE25C57DCAC
:10358C003A972E29A24E57DDBB13EB6AB4775BD565
:10359C0088715BCFB83A5EFBC0A1583B49B3379FEB
:1035AC006E265945465011D7A859369C634420368F
:1035BC00CEE5C3DC07F4B3F124B6B7600CC0EDDE86
:1035CC0091D46532708DB73FECA2BE027FF085D5E9
:1035DC00C2A6875D34C6C25289137CFB1AF5A4D6E9
:1035EC00B61C13E35B9FDA358E1321CA53A88F35B3
:1035FC00357570BBF26F3CEC9751DA47601AF935B0
:10360C00BA4C36579B177C0BA5DBE75D92FBADBB29
:10361C001D8A75623A9FBDEC38E3F1FDC9A7F171C3
:10362C003F5F1E8556A3EE63C48FBC2C67FB023F25
:10363C006878F47BBE95191ECC6BAD173D53EBE946
:10364C00BDF5723FDA1540857327C364A7B32356C3
:10365C00D412960C32A153840C6F7DD3BB8ADFA796
:10366C00C795299332717D5220A83AC5DFDF2151CD
:10367C0073392F2ED2A2BDC9AC5E4E7E4A67D906D5
:10368C006039B1CE0CCC124E4ECB577DE446AD8397
:10369C004A2C9528AAD54C20F448D6E4E80B4005D2
:1036AC006B4263D615301C60C87EB4B6A615363A8C
:1036BC007532F7684501B7022D9EA00B3206992290
:1036CC00D809594F52016E8ACB8452584AB9C1F766
:1036DC0044922823EB4D9E7C92804426E16F30BDB2
:1036EC00848AF13526AD35DEB7639E42FC5B59B951
:1036FC00BF40536DA75165E95405BFD4A036383689
:10370C00BF300B6C4F518FBE9B9C71EE7DD485BD31
:10371C00C72DEE35D77CB1FD379157CDA09AF60663
:10372C00FC8A59D0E0AC45B26F5000BDBA39A3B396
:10373C0096915AA01517DFFCB6C879D2FECF131E8E
:10374C007978D766F705974C22CBF2C7C38497D00C
:10375C00A847BC43E03AA54E74F6BA8EA503F34CC9
:10376C004D02E10A935522FD732FC6EEE945CF3980
:10377C00466C2B5223C20D2C5983B4BAEA82BA720E
:10378C0086F6C6A76B263F92AB1F92EEE37F6A9438
:10379C0042668E770FB3D59C459FDFAE2337699D6C
:1037AC0019BE880E524486EDFED6418C237E616B89
:1037BC000ADEDE2B2432451D9A6070DD3196CD3544
:1037CC00C09B057EB9DE46B8C247940B764DDBC173
:1037DC00942553FDC3C3CAF60C832BEC1F91C6CDA5
:1037EC001207686A73D93C7E2F77F3AD33015630DC
:1037FC0034F5446EC301C80BB65974CCD58EE14B6D
:10380C0098119A556DD7B5A45F09FF8CBAE790ABA8
:10381C00D6B3296A70E8937E8193B8627A33C3D3A6
:10382C00B7E10BD40F1C94E3419BE9EFAB0BC7D46E
:10383C00C1EE3B25F7EEEA4500E569AFA9BED1F82C
:10384C00C6829187A3CA0A3E4F77177226C02D47AE
:10385C0042A606C0FE3CECCE0681E2C59CDC1246BC
:10386C003EE5EF2DF5464C95A382931A76A0CA42FD
:10387C00EA7C82E18F4A5391E85359166B49BFD5C4
:10388C005711145388610BE7D33E10FF9898989802
:10389C00989898988E672F7B50716D83623BD5F802
:0D38AC00E6CCA48444A176D4805A48C424FC
:06003700E478FFF6D8FD9D
:100015007900E94400601B7A009038B9780075A032
:1000250000E493F2A308B8000205A0D9F4DAF2754A
:02003500A0FF2A
:10089500E540454160467A01E54025E0F540E54102
:1008A500334012F541E5829540E583954140030AC1
:1008B50080E6C3E54113F541E54013F540C3E58204
:1008C5009540F5F0E58395414005F58385F082C3B4
:0D08D500E54113F541E54013F540DAE1225D
:10003D007800E84400600A790075A000E4F309D85F
:10004D00FC7800E84400600C7900900000E4F0A317
:04005D00D8FCD9FAF8
:0D000800758143120918E5826003020003B0
:1008E200C2D5E58330E70DD2D5E4C39582F582E423
:1008F2009583F583E54130E70BE4C39540F540E489
:100902009541F54112089530D50BE4C39582F582E5
:0A091200E49583F58322758200222C
:00000001FF
